S0160000726573706F6E73652D6D657465722E7372656355
S11300000C942A000C9447000C9447000C9447006D
S11300100C9447000C9447000C9447000C94D300B4
S11300200C9447000C9447000C9447000C94470030
S11300300C9447000C9447000C9447000C94470020
S11300400C9447000C9447000C9447000C94470010
S11300500C94470011241FBECFE5D8E0DEBFCDBF0E
S113006010E0A0E6B0E0E4EEFBE002C005900D92E3
S1130070AA3BB107D9F720E0AAEBB0E001C01D927A
S1130080AE3CB207E1F70E9486010C94F0050C9493
S1130090000080FF02C0DC9A01C0DC9881FF02C02E
S11300A0DD9A01C0DD9882FF02C0DE9A01C0DE98AD
S11300B083FF02C0DF9A0895DF980895CF93C82F75
S11300C0DB9A82958F700E944900DB98DB9A8C2F13
S11300D00E944900DB9887EC90E00197F1F700C09B
S11300E00000CF910895DA980E945E000895DA9A8C
S11300F00E945E000895CF93DF93EC0188818823EA
S113010031F021960E94770089918111FBCFDF9114
S1130110CF91089581E00E9473008FE39FE10197DE
S1130120F1F700C000000895CF93D49AD59AD69AD7
S1130130D79AD39AD29A8FE59AEE0197F1F700C035
S11301400000DA98DB98C3E0DB9A83E00E94490060
S1130150DB988FE19EE40197F1F700C00000C150E5
S113016099F7DB9A82E00E944900DB988FE99FE0CF
S11301700197F1F700C0000088E20E94730088E054
S11301800E94730081E00E9473008FE39FE1019756
S1130190F1F700C0000086E00E9473008CE00E942A
S11301A07300CF9108951F920F920FB60F921124EE
S11301B08F939F938091BA009091BB00892B49F053
S11301C08091BC009091BD0001969093BD008093F6
S11301D0BC009F918F910F900FBE0F901F901895A8
S11301E08EB58A608EBD80916000909161009BBD48
S11301F08ABD89B7806189BF7894089514BA8FEF56
S113020085BB97B387BB88BB0895EF92FF920F938A
S11302101F93CF93DF930E948A0080E80E947300AB
S11302200091BC001091BD000F2EF8EEEF2EF3E00C
S1130230FF2EF02DC801B7010E94DE029F938F9319
S11302407F936F938AE690E09F938F93CEEBD0E0F9
S1130250DF93CF930E940603CE010E947B0080ECC3
S11302600E947300B80180E090E00E94E30120E066
S113027030E040E85EE30E9449020E94AD01CB01F8
S1130280B7010E94DE029F938F937F936F938AE757
S113029090E09F938F93DF93CF930E940603CE0148
S11302A00E947B008DB79EB740960FB6F8949EBF10
S11302B00FBE8DBFDF91CF911F910F91FF90EF90F3
S11302C008951092BD001092BC00E2E6F0E04AE608
S11302D050E021E030E03093BB002093BA008081ED
S11302E03296B90102C0660F771F8A95E2F7CB01F7
S11302F0809588BB93B388B39813FCCF1092BB004E
S11303001092BA00E417F50731F708950E94FE0031
S11303100E9494000E94F0000E948A0081E80E94DA
S113032073008AE890E00E947B0081EC0E947300D5
S113033089E990E00E947B0083B38F3FE9F381EC6D
S11303400E94730089EA90E00E947B000E94610190
S11303500E94050180E090E008950E94B401689431
S1130360B1110C94430208950E94280288F09F570B
S113037098F0B92F9927B751B0F0E1F0660F771FC5
S1130380881F991F1AF0BA95C9F714C0B13091F0BB
S11303900E944202B1E008950C944202672F782F24
S11303A08827B85F39F0B93FCCF386957795679580
S11303B0B395D9F73EF490958095709561957F4FEC
S11303C08F4F9F4F0895E89409C097FB3EF4909592
S11303D08095709561957F4F8F4F9F4F9923A9F01A
S11303E0F92F96E9BB279395F695879577956795A9
S11303F0B795F111F8CFFAF4BB0F11F460FF1BC0ED
S11304006F5F7F4F8F4F9F4F16C0882311F096E97F
S113041011C0772321F09EE8872F762F05C066232D
S113042071F096E8862F70E060E02AF09A95660FE6
S1130430771F881FDAF7880F9695879597F908959F
S113044057FD9058440F551F59F05F3F71F0479581
S1130450880F97FB991F61F09F3F79F08795089566
S1130460121613061406551FF2CF4695F1DF08C085
S1130470161617061806991FF1CF869571056105A2
S113048008940895E894BB2766277727CB0197F94A
S113049008950E945C020C94CD020E94BF0238F0C1
S11304A00E94C60220F0952311F00C94B6020C941D
S11304B0BC0211240C9443020E94200270F3959F05
S11304C0C1F3950F50E0551F629FF001729FBB2747
S11304D0F00DB11D639FAA27F00DB11DAA1F649FE3
S11304E06627B00DA11D661F829F2227B00DA11D96
S11304F0621F739FB00DA11D621F839FA00D611D1C
S1130500221F749F3327A00D611D231F849F600D3C
S1130510211D822F762F6A2F11249F5750409AF065
S1130520F1F088234AF0EE0FFF1FBB1F661F771FF1
S1130530881F91505040A9F79E3F510580F00C94BC
S1130540B6020C9443025F3FE4F3983ED4F38695DD
S113055077956795B795F795E7959F5FC1F7FE2B5C
S1130560880F911D9695879597F9089597F99F6738
S113057080E870E060E008959FEF80EC0895002427
S11305800A941616170618060906089500240A94F4
S113059012161306140605060895092E0394000C7A
S11305A011F4882352F0BB0F40F4BF2B11F460FF09
S11305B004C06F5F7F4F8F4F9F4F089597FB072EA7
S11305C016F4009407D077FD09D00E94F20207FCCC
S11305D005D03EF4909581959F4F0895709561954F
S11305E07F4F0895AA1BBB1B51E107C0AA1FBB1F65
S11305F0A617B70710F0A61BB70B881F991F5A95AB
S1130600A9F780959095BC01CD010895AEE0B0E0C6
S1130610ECE0F3E00C94C7050D891E8986E08C8319
S11306201A8309838FEF9FE79E838D83AE01475E14
S11306305F4F6F89788DCE0101960E942803EF8168
S1130640F885E00FF11F10822E96E4E00C94E30588
S1130650ABE0B0E0EEE2F3E00C94B9056C017B0191
S11306608A01FC0117821682838181FFCCC1CE01ED
S113067001963C01F6019381F70193FD859193FF67
S113068081917F01882309F4BAC1853239F493FD3D
S1130690859193FF81917F01853229F4B60190E021
S11306A00E941F05E7CF912C212C312CFFE1F3157B
S11306B0D8F08B3279F038F4803279F08332A1F4B7
S11306C0232D20611DC08D3261F0803369F4232D08
S11306D0216016C0832D8260382EE32DE4603E2E07
S11306E02AC0F32DF8601DC037FC2DC020ED280F63
S11306F02A3040F08E32B9F436FC81C1232D2064B7
S1130700322E19C036FE06C08AE0989E200D1124B0
S1130710922E11C0EAE02E9E200D1124222EF32DDC
S1130720F0623F2E08C08C3621F4832D8068382E69
S113073002C0883641F4F70193FD859193FF8191BE
S11307407F018111B3CF982F9F7D9554933028F466
S11307500C5F1F4F9FE399830DC0833631F08337BD
S113076071F0833509F059C021C0F8018081898373
S11307700E5F1F4F88248394912C530113C02801CA
S1130780F2E04F0E511CF801A080B18036FE03C088
S1130790692D70E002C06FEF7FEFC5010E94140560
S11307A04C018201F32DFF773F2E16C0280122E071
S11307B0420E511CF801A080B18036FE03C0692DA1
S11307C070E002C06FEF7FEFC5010E9409054C0184
S11307D0F32DF0683F2E820133FC1BC0822D90E084
S11307E088169906B0F4B60180E290E00E941F05D5
S11307F02A94F4CFF50137FC859137FE81915F018E
S1130800B60190E00E941F0521102A9421E0821A6B
S113081091088114910471F7E8C0843611F0893687
S113082041F5F80137FE07C06081718182819381AF
S11308300C5F1F4F08C060817181072E000C880B6C
S1130840990B0E5F1F4FF32DFF763F2E97FF09C0C4
S113085090958095709561957F4F8F4F9F4FF0686D
S11308603F2E2AE030E0A3010E945B05882E861803
S113087045C0853731F4232D2F7EB22E2AE030E097
S113088025C0932D997FB92E8F36C1F018F4883581
S113089079F0B5C0803719F0883721F0B0C0E92F5E
S11308A0E061BE2EB4FE0DC0FB2DF460BF2E09C066
S11308B034FE0AC0292F2660B22E06C028E030E09C
S11308C005C020E130E002C020E132E0F801B7FECB
S11308D007C060817181828193810C5F1F4F06C0C4
S11308E06081718180E090E00E5F1F4FA3010E9440
S11308F05B05882E8618FB2DFF773F2E36FE0DC034
S1130900232D2E7FA22E891458F434FE0BC032FC02
S113091009C0832D8E7EA82E05C0B82CA32C03C03D
S1130920B82C01C0B92CA4FE0FC0FE01E80DF11DC6
S11309308081803321F49A2D997EA92E09C0A2FECC
S113094006C0B394B39404C08A2D867809F0B39496
S1130950A3FC11C0A0FE06C0B21488F4280C922C8B
S11309609B180EC0B21460F4B60180E290E00E94BD
S11309701F05B394F7CFB21418F42B1802C0982CA7
S1130980212CA4FE10C0B60180E390E00E941F0554
S1130990A2FE17C0A1FC03C088E790E002C088E56E
S11309A090E0B6010CC08A2D867859F0A1FE02C0F1
S11309B08BE201C080E2A7FC8DE2B60190E00E94C8
S11309C01F05891438F4B60180E390E00E941F05E6
S11309D09A94F7CF8A94F301E80DF11D8081B60152
S11309E090E00E941F058110F5CF222009F442CE29
S11309F0B60180E290E00E941F052A94F6CFF6012A
S1130A008681978102C08FEF9FEF2B96E2E10C94D1
S1130A10D505FC010590615070400110D8F7809510
S1130A2090958E0F9F1F0895FC01615070400190B6
S1130A300110D8F7809590958E0F9F1F08950F93FE
S1130A401F93CF93DF93FB01238121FD03C08FEF1D
S1130A509FEF2CC022FF16C0468157812481358127
S1130A604217530744F4A081B1819D012F5F3F4F8A
S1130A70318320838C93268137812F5F3F4F3783C7
S1130A80268314C08B01EC01FB010084F185E02D69
S1130A900995892BE1F6D80116968D919C911797AB
S1130AA0019617969C938E931697CE01DF91CF9162
S1130AB01F910F910895FA01AA27283051F120318E
S1130AC081F1E8946F936E7F6E5F7F4F8F4F9F4FDE
S1130AD0AF4FB1E03ED0B4E03CD0670F781F891F20
S1130AE09A1FA11D680F791F8A1F911DA11D6A0FEE
S1130AF0711D811D911DA11D20D009F468943F91A1
S1130B002AE0269F11243019305D3193DEF6CF019F
S1130B100895462F4770405D4193B3E00FD0C9F765
S1130B20F6CF462F4F70405D4A3318F0495D31FDD2
S1130B304052419302D0A9F7EACFB4E0A695979525
S1130B40879577956795BA95C9F7009761057105FB
S1130B5008959B01AC010A2E069457954795379545
S1130B602795BA95C9F7620F731F841F951FA01D9F
S1130B7008952F923F924F925F926F927F928F923D
S1130B809F92AF92BF92CF92DF92EF92FF920F9318
S1130B901F93CF93DF93CDB7DEB7CA1BDB0B0FB622
S1130BA0F894DEBF0FBECDBF09942A8839884888DF
S1130BB05F846E847D848C849B84AA84B984C88475
S1130BC0DF80EE80FD800C811B81AA81B981CE0F6C
S1130BD0D11D0FB6F894DEBF0FBECDBFED01089551
S1070BE0F894FFCFB3
S1130BE4D0070100040005000700546F74616C3AD7
S1130BF4202532642E25642073004D65616E3A20ED
S1130C04202025642E2564207300526573706F6E52
S1130C147365206D65746572005072657373206228
S1130C247574746F6E2E2E2E0020205465737469AF
S10D0C346E672E2E2E2020200000F3
S9030000FC
